{
  "_format": "hh-sol-artifact-1",
  "contractName": "StockContract",
  "sourceName": "contracts/StockContract.sol",
  "abi": [
    {
      "inputs": [
        {
          "internalType": "string",
          "name": "_name",
          "type": "string"
        },
        {
          "internalType": "string",
          "name": "_symbol",
          "type": "string"
        },
        {
          "internalType": "uint8",
          "name": "_decimals",
          "type": "uint8"
        }
      ],
      "stateMutability": "nonpayable",
      "type": "constructor"
    },
    {
      "anonymous": false,
      "inputs": [
        {
          "indexed": true,
          "internalType": "address",
          "name": "owner",
          "type": "address"
        },
        {
          "indexed": true,
          "internalType": "address",
          "name": "spender",
          "type": "address"
        },
        {
          "indexed": false,
          "internalType": "uint256",
          "name": "value",
          "type": "uint256"
        }
      ],
      "name": "Approval",
      "type": "event"
    },
    {
      "anonymous": false,
      "inputs": [
        {
          "indexed": true,
          "internalType": "uint256",
          "name": "productId",
          "type": "uint256"
        },
        {
          "indexed": true,
          "internalType": "address",
          "name": "from",
          "type": "address"
        },
        {
          "indexed": true,
          "internalType": "address",
          "name": "to",
          "type": "address"
        }
      ],
      "name": "OwnershipTransferred",
      "type": "event"
    },
    {
      "anonymous": false,
      "inputs": [
        {
          "indexed": true,
          "internalType": "address",
          "name": "from",
          "type": "address"
        },
        {
          "indexed": true,
          "internalType": "address",
          "name": "to",
          "type": "address"
        },
        {
          "indexed": false,
          "internalType": "uint256",
          "name": "value",
          "type": "uint256"
        }
      ],
      "name": "Transfer",
      "type": "event"
    },
    {
      "inputs": [],
      "name": "_counter",
      "outputs": [
        {
          "internalType": "uint256",
          "name": "",
          "type": "uint256"
        }
      ],
      "stateMutability": "view",
      "type": "function"
    },
    {
      "inputs": [
        {
          "internalType": "address",
          "name": "dealer",
          "type": "address"
        },
        {
          "internalType": "uint256",
          "name": "amount",
          "type": "uint256"
        }
      ],
      "name": "addDealer",
      "outputs": [],
      "stateMutability": "nonpayable",
      "type": "function"
    },
    {
      "inputs": [
        {
          "internalType": "address",
          "name": "manufacturer",
          "type": "address"
        }
      ],
      "name": "addManufacturer",
      "outputs": [],
      "stateMutability": "nonpayable",
      "type": "function"
    },
    {
      "inputs": [
        {
          "internalType": "string",
          "name": "name",
          "type": "string"
        },
        {
          "internalType": "string",
          "name": "model",
          "type": "string"
        },
        {
          "internalType": "string",
          "name": "dealer",
          "type": "string"
        },
        {
          "internalType": "string",
          "name": "serialNumber",
          "type": "string"
        },
        {
          "internalType": "string",
          "name": "warranty",
          "type": "string"
        },
        {
          "internalType": "uint256",
          "name": "amount",
          "type": "uint256"
        },
        {
          "internalType": "string",
          "name": "manufacture",
          "type": "string"
        }
      ],
      "name": "addProduct",
      "outputs": [],
      "stateMutability": "nonpayable",
      "type": "function"
    },
    {
      "inputs": [
        {
          "internalType": "address",
          "name": "",
          "type": "address"
        },
        {
          "internalType": "address",
          "name": "",
          "type": "address"
        }
      ],
      "name": "allowance",
      "outputs": [
        {
          "internalType": "uint256",
          "name": "",
          "type": "uint256"
        }
      ],
      "stateMutability": "view",
      "type": "function"
    },
    {
      "inputs": [
        {
          "internalType": "address",
          "name": "account",
          "type": "address"
        }
      ],
      "name": "balanceOf",
      "outputs": [
        {
          "internalType": "uint256",
          "name": "",
          "type": "uint256"
        }
      ],
      "stateMutability": "view",
      "type": "function"
    },
    {
      "inputs": [
        {
          "internalType": "address",
          "name": "",
          "type": "address"
        }
      ],
      "name": "balances",
      "outputs": [
        {
          "internalType": "uint256",
          "name": "",
          "type": "uint256"
        }
      ],
      "stateMutability": "view",
      "type": "function"
    },
    {
      "inputs": [
        {
          "internalType": "address",
          "name": "",
          "type": "address"
        }
      ],
      "name": "dealers",
      "outputs": [
        {
          "internalType": "bool",
          "name": "",
          "type": "bool"
        }
      ],
      "stateMutability": "view",
      "type": "function"
    },
    {
      "inputs": [],
      "name": "decimals",
      "outputs": [
        {
          "internalType": "uint8",
          "name": "",
          "type": "uint8"
        }
      ],
      "stateMutability": "view",
      "type": "function"
    },
    {
      "inputs": [],
      "name": "ename",
      "outputs": [
        {
          "internalType": "string",
          "name": "",
          "type": "string"
        }
      ],
      "stateMutability": "view",
      "type": "function"
    },
    {
      "inputs": [],
      "name": "getOwner",
      "outputs": [
        {
          "internalType": "address",
          "name": "",
          "type": "address"
        }
      ],
      "stateMutability": "view",
      "type": "function"
    },
    {
      "inputs": [
        {
          "internalType": "string",
          "name": "serialNumber",
          "type": "string"
        }
      ],
      "name": "getProductBySerialNumber",
      "outputs": [
        {
          "internalType": "string",
          "name": "",
          "type": "string"
        },
        {
          "internalType": "string",
          "name": "",
          "type": "string"
        },
        {
          "internalType": "string",
          "name": "",
          "type": "string"
        },
        {
          "internalType": "string",
          "name": "",
          "type": "string"
        },
        {
          "internalType": "bool",
          "name": "",
          "type": "bool"
        },
        {
          "internalType": "string",
          "name": "",
          "type": "string"
        },
        {
          "internalType": "string",
          "name": "",
          "type": "string"
        },
        {
          "internalType": "string",
          "name": "",
          "type": "string"
        },
        {
          "internalType": "string",
          "name": "",
          "type": "string"
        }
      ],
      "stateMutability": "view",
      "type": "function"
    },
    {
      "inputs": [],
      "name": "getProducts",
      "outputs": [
        {
          "components": [
            {
              "internalType": "string",
              "name": "name",
              "type": "string"
            },
            {
              "internalType": "string",
              "name": "model",
              "type": "string"
            },
            {
              "internalType": "string",
              "name": "dealer",
              "type": "string"
            },
            {
              "internalType": "string",
              "name": "serialNumber",
              "type": "string"
            },
            {
              "internalType": "string",
              "name": "warranty",
              "type": "string"
            },
            {
              "internalType": "bool",
              "name": "sold",
              "type": "bool"
            },
            {
              "internalType": "string",
              "name": "customerName",
              "type": "string"
            },
            {
              "internalType": "string",
              "name": "customerEmail",
              "type": "string"
            },
            {
              "internalType": "string",
              "name": "salesDate",
              "type": "string"
            },
            {
              "internalType": "string",
              "name": "manufacture",
              "type": "string"
            }
          ],
          "internalType": "struct StockContract.Product[]",
          "name": "",
          "type": "tuple[]"
        }
      ],
      "stateMutability": "view",
      "type": "function"
    },
    {
      "inputs": [
        {
          "internalType": "string",
          "name": "dealer",
          "type": "string"
        }
      ],
      "name": "getProductsByDealer",
      "outputs": [
        {
          "components": [
            {
              "internalType": "string",
              "name": "name",
              "type": "string"
            },
            {
              "internalType": "string",
              "name": "model",
              "type": "string"
            },
            {
              "internalType": "string",
              "name": "dealer",
              "type": "string"
            },
            {
              "internalType": "string",
              "name": "serialNumber",
              "type": "string"
            },
            {
              "internalType": "string",
              "name": "warranty",
              "type": "string"
            },
            {
              "internalType": "bool",
              "name": "sold",
              "type": "bool"
            },
            {
              "internalType": "string",
              "name": "customerName",
              "type": "string"
            },
            {
              "internalType": "string",
              "name": "customerEmail",
              "type": "string"
            },
            {
              "internalType": "string",
              "name": "salesDate",
              "type": "string"
            },
            {
              "internalType": "string",
              "name": "manufacture",
              "type": "string"
            }
          ],
          "internalType": "struct StockContract.Product[]",
          "name": "",
          "type": "tuple[]"
        }
      ],
      "stateMutability": "view",
      "type": "function"
    },
    {
      "inputs": [
        {
          "internalType": "string",
          "name": "manufacture",
          "type": "string"
        }
      ],
      "name": "getProductsByManufacture",
      "outputs": [
        {
          "components": [
            {
              "internalType": "string",
              "name": "name",
              "type": "string"
            },
            {
              "internalType": "string",
              "name": "model",
              "type": "string"
            },
            {
              "internalType": "string",
              "name": "dealer",
              "type": "string"
            },
            {
              "internalType": "string",
              "name": "serialNumber",
              "type": "string"
            },
            {
              "internalType": "string",
              "name": "warranty",
              "type": "string"
            },
            {
              "internalType": "bool",
              "name": "sold",
              "type": "bool"
            },
            {
              "internalType": "string",
              "name": "customerName",
              "type": "string"
            },
            {
              "internalType": "string",
              "name": "customerEmail",
              "type": "string"
            },
            {
              "internalType": "string",
              "name": "salesDate",
              "type": "string"
            },
            {
              "internalType": "string",
              "name": "manufacture",
              "type": "string"
            }
          ],
          "internalType": "struct StockContract.Product[]",
          "name": "",
          "type": "tuple[]"
        }
      ],
      "stateMutability": "view",
      "type": "function"
    },
    {
      "inputs": [
        {
          "internalType": "address",
          "name": "",
          "type": "address"
        }
      ],
      "name": "manufacturers",
      "outputs": [
        {
          "internalType": "bool",
          "name": "",
          "type": "bool"
        }
      ],
      "stateMutability": "view",
      "type": "function"
    },
    {
      "inputs": [
        {
          "internalType": "string",
          "name": "serialNumber",
          "type": "string"
        },
        {
          "internalType": "string",
          "name": "customerName",
          "type": "string"
        },
        {
          "internalType": "string",
          "name": "customerEmail",
          "type": "string"
        },
        {
          "internalType": "string",
          "name": "salesDate",
          "type": "string"
        },
        {
          "internalType": "string",
          "name": "warranty",
          "type": "string"
        },
        {
          "internalType": "uint256",
          "name": "amount",
          "type": "uint256"
        }
      ],
      "name": "markProductAsSold",
      "outputs": [],
      "stateMutability": "nonpayable",
      "type": "function"
    },
    {
      "inputs": [
        {
          "internalType": "uint256",
          "name": "amount",
          "type": "uint256"
        },
        {
          "internalType": "address",
          "name": "manuaddress",
          "type": "address"
        }
      ],
      "name": "mint",
      "outputs": [],
      "stateMutability": "nonpayable",
      "type": "function"
    },
    {
      "inputs": [
        {
          "internalType": "address",
          "name": "to",
          "type": "address"
        },
        {
          "internalType": "uint256",
          "name": "amount",
          "type": "uint256"
        }
      ],
      "name": "mintin",
      "outputs": [],
      "stateMutability": "nonpayable",
      "type": "function"
    },
    {
      "inputs": [],
      "name": "owner",
      "outputs": [
        {
          "internalType": "address",
          "name": "",
          "type": "address"
        }
      ],
      "stateMutability": "view",
      "type": "function"
    },
    {
      "inputs": [
        {
          "internalType": "uint256",
          "name": "",
          "type": "uint256"
        }
      ],
      "name": "productDetails",
      "outputs": [
        {
          "internalType": "string",
          "name": "name",
          "type": "string"
        },
        {
          "internalType": "string",
          "name": "model",
          "type": "string"
        },
        {
          "internalType": "string",
          "name": "dealer",
          "type": "string"
        },
        {
          "internalType": "string",
          "name": "serialNumber",
          "type": "string"
        },
        {
          "internalType": "string",
          "name": "warranty",
          "type": "string"
        },
        {
          "internalType": "bool",
          "name": "sold",
          "type": "bool"
        },
        {
          "internalType": "string",
          "name": "customerName",
          "type": "string"
        },
        {
          "internalType": "string",
          "name": "customerEmail",
          "type": "string"
        },
        {
          "internalType": "string",
          "name": "salesDate",
          "type": "string"
        },
        {
          "internalType": "string",
          "name": "manufacture",
          "type": "string"
        }
      ],
      "stateMutability": "view",
      "type": "function"
    },
    {
      "inputs": [
        {
          "internalType": "uint256",
          "name": "",
          "type": "uint256"
        }
      ],
      "name": "products",
      "outputs": [
        {
          "internalType": "string",
          "name": "name",
          "type": "string"
        },
        {
          "internalType": "string",
          "name": "model",
          "type": "string"
        },
        {
          "internalType": "string",
          "name": "dealer",
          "type": "string"
        },
        {
          "internalType": "string",
          "name": "serialNumber",
          "type": "string"
        },
        {
          "internalType": "string",
          "name": "warranty",
          "type": "string"
        },
        {
          "internalType": "bool",
          "name": "sold",
          "type": "bool"
        },
        {
          "internalType": "string",
          "name": "customerName",
          "type": "string"
        },
        {
          "internalType": "string",
          "name": "customerEmail",
          "type": "string"
        },
        {
          "internalType": "string",
          "name": "salesDate",
          "type": "string"
        },
        {
          "internalType": "string",
          "name": "manufacture",
          "type": "string"
        }
      ],
      "stateMutability": "view",
      "type": "function"
    },
    {
      "inputs": [
        {
          "internalType": "string",
          "name": "",
          "type": "string"
        }
      ],
      "name": "serialNumberToCustomer",
      "outputs": [
        {
          "internalType": "string",
          "name": "",
          "type": "string"
        }
      ],
      "stateMutability": "view",
      "type": "function"
    },
    {
      "inputs": [
        {
          "internalType": "string",
          "name": "",
          "type": "string"
        }
      ],
      "name": "serialNumberToIndex",
      "outputs": [
        {
          "internalType": "uint256",
          "name": "",
          "type": "uint256"
        }
      ],
      "stateMutability": "view",
      "type": "function"
    },
    {
      "inputs": [
        {
          "internalType": "string",
          "name": "_name",
          "type": "string"
        },
        {
          "internalType": "string",
          "name": "_model",
          "type": "string"
        },
        {
          "internalType": "string",
          "name": "_dealer",
          "type": "string"
        },
        {
          "internalType": "string",
          "name": "_serialNumber",
          "type": "string"
        },
        {
          "internalType": "string",
          "name": "_warranty",
          "type": "string"
        },
        {
          "internalType": "bool",
          "name": "_sold",
          "type": "bool"
        },
        {
          "internalType": "string",
          "name": "_customername",
          "type": "string"
        },
        {
          "internalType": "string",
          "name": "_customeremail",
          "type": "string"
        },
        {
          "internalType": "string",
          "name": "_salesdate",
          "type": "string"
        },
        {
          "internalType": "string",
          "name": "_manufacture",
          "type": "string"
        }
      ],
      "name": "showProduct",
      "outputs": [],
      "stateMutability": "nonpayable",
      "type": "function"
    },
    {
      "inputs": [],
      "name": "symbol",
      "outputs": [
        {
          "internalType": "string",
          "name": "",
          "type": "string"
        }
      ],
      "stateMutability": "view",
      "type": "function"
    },
    {
      "inputs": [
        {
          "internalType": "address",
          "name": "to",
          "type": "address"
        },
        {
          "internalType": "uint256",
          "name": "value",
          "type": "uint256"
        }
      ],
      "name": "transfer",
      "outputs": [
        {
          "internalType": "bool",
          "name": "",
          "type": "bool"
        }
      ],
      "stateMutability": "nonpayable",
      "type": "function"
    },
    {
      "inputs": [
        {
          "internalType": "string",
          "name": "serialNumber",
          "type": "string"
        },
        {
          "internalType": "string",
          "name": "customerName",
          "type": "string"
        },
        {
          "internalType": "string",
          "name": "customerEmail",
          "type": "string"
        }
      ],
      "name": "updateCustomerDetails",
      "outputs": [],
      "stateMutability": "nonpayable",
      "type": "function"
    }
  ],
  "bytecode": "0x60806040523480156200001157600080fd5b506040516200445c3803806200445c833981016040819052620000349162000266565b600080546001600160a01b0319163317905582516200005b9060059060208601906200010d565b508151620000719060069060208501906200010d565b506007805460ff191660ff83169081179091556200009190600a62000330565b620000a090620f4240620003fb565b600080546001600160a01b039081168252600360205260408083209390935581541680825282822054925190927fddf252ad1be2c89b69c2b068fc378daa952ba7f163c4a11628f55a4df523b3ef91620000fc91815260200190565b60405180910390a350505062000486565b8280546200011b906200041d565b90600052602060002090601f0160209004810192826200013f57600085556200018a565b82601f106200015a57805160ff19168380011785556200018a565b828001600101855582156200018a579182015b828111156200018a5782518255916020019190600101906200016d565b50620001989291506200019c565b5090565b5b808211156200019857600081556001016200019d565b600082601f830112620001c4578081fd5b81516001600160401b0380821115620001e157620001e162000470565b604051601f8301601f19908116603f011681019082821181831017156200020c576200020c62000470565b8160405283815260209250868385880101111562000228578485fd5b8491505b838210156200024b57858201830151818301840152908201906200022c565b838211156200025c57848385830101525b9695505050505050565b6000806000606084860312156200027b578283fd5b83516001600160401b038082111562000292578485fd5b620002a087838801620001b3565b94506020860151915080821115620002b6578384fd5b50620002c586828701620001b3565b925050604084015160ff81168114620002dc578182fd5b809150509250925092565b600181815b80851115620003285781600019048211156200030c576200030c6200045a565b808516156200031a57918102915b93841c9390800290620002ec565b509250929050565b60006200033e838362000345565b9392505050565b6000826200035657506001620003f5565b816200036557506000620003f5565b81600181146200037e57600281146200038957620003a9565b6001915050620003f5565b60ff8411156200039d576200039d6200045a565b50506001821b620003f5565b5060208310610133831016604e8410600b8410161715620003ce575081810a620003f5565b620003da8383620002e7565b8060001904821115620003f157620003f16200045a565b0290505b92915050565b60008160001904831182151516156200041857620004186200045a565b500290565b600181811c908216806200043257607f821691505b602082108114156200045457634e487b7160e01b600052602260045260246000fd5b50919050565b634e487b7160e01b600052601160045260246000fd5b634e487b7160e01b600052604160045260246000fd5b613fc680620004966000396000f3fe608060405234801561001057600080fd5b50600436106101c45760003560e01c8063893d20e8116100f9578063b0b2f3ca11610097578063dd62ed3e11610071578063dd62ed3e14610439578063e963bf0114610464578063ec9ebbcb14610477578063f62fe1d51461048a57600080fd5b8063b0b2f3ca146103f3578063b0c124a51461041e578063c29b2f201461043157600080fd5b806394bf804d116100d357806394bf804d146103b257806395d89b41146103c5578063a079e1ee146103cd578063a9059cbb146103e057600080fd5b8063893d20e8146103675780638da5cb5b1461038c57806394bab1e51461039f57600080fd5b80635f8a5afa1161016657806370c18ccc1161014057806370c18ccc146103185780637acc0b20146103385780637cd49fde1461034b57806383fbc3401461035457600080fd5b80635f8a5afa146102a95780636b5eb09c146102bc57806370a08231146102ef57600080fd5b80633655aa00116101a25780633655aa001461023057806340d38f381461024557806348f7eb3014610258578063585068831461028157600080fd5b806317cc6352146101c957806327e235e3146101de578063313ce56714610211575b600080fd5b6101dc6101d73660046134d5565b6104ad565b005b6101fe6101ec366004613482565b60036020526000908152604090205481565b6040519081526020015b60405180910390f35b60075461021e9060ff1681565b60405160ff9091168152602001610208565b6102386105b7565b6040516102089190613b6e565b6101dc6102533660046135bd565b610645565b61026b6102663660046138f7565b6107d5565b6040516102089a99989796959493929190613c3a565b61029461028f3660046134fe565b610cf2565b60405161020899989796959493929190613b81565b6101dc6102b7366004613482565b611311565b6102df6102ca366004613482565b60016020526000908152604090205460ff1681565b6040519015158152602001610208565b6101fe6102fd366004613482565b6001600160a01b031660009081526003602052604090205490565b61032b6103263660046134fe565b611362565b6040516102089190613a14565b61026b6103463660046138f7565b611afd565b6101fe60085481565b6101dc6103623660046134d5565b611b30565b6000546001600160a01b03165b6040516001600160a01b039091168152602001610208565b600054610374906001600160a01b031681565b61032b6103ad3660046134fe565b611c1b565b6101dc6103c036600461390f565b61235f565b6102386123e1565b6101dc6103db3660046137fe565b6123ee565b6102df6103ee3660046134d5565b612749565b6101fe6104013660046134fe565b8051602081830181018051600b8252928201919093012091525481565b6101dc61042c36600461372a565b6129d7565b61032b612c1c565b6101fe6104473660046134a3565b600460209081526000928352604080842090915290825290205481565b6102386104723660046134fe565b6131b1565b6101dc610485366004613539565b6131d5565b6102df610498366004613482565b60026020526000908152604090205460ff1681565b6000546001600160a01b031633146104e05760405162461bcd60e51b81526004016104d790613d8a565b60405180910390fd5b6001600160a01b0382166105365760405162461bcd60e51b815260206004820152601a60248201527f496e76616c696420726563697069656e7420616464726573732e00000000000060448201526064016104d7565b600081116105565760405162461bcd60e51b81526004016104d790613d09565b6001600160a01b0382166000908152600360205260408120805483929061057e908490613e8f565b90915550506040518181526001600160a01b03831690600090600080516020613f71833981519152906020015b60405180910390a35050565b600580546105c490613eee565b80601f01602080910402602001604051908101604052809291908181526020018280546105f090613eee565b801561063d5780601f106106125761010080835404028352916020019161063d565b820191906000526020600020905b81548152906001019060200180831161062057829003601f168201915b505050505081565b6040518061014001604052808b81526020018a8152602001898152602001888152602001878152602001861515815260200185815260200184815260200183815260200182815250600a6000600854815260200190815260200160002060008201518160000190805190602001906106be9291906132e6565b5060208281015180516106d792600185019201906132e6565b50604082015180516106f39160028401916020909101906132e6565b506060820151805161070f9160038401916020909101906132e6565b506080820151805161072b9160048401916020909101906132e6565b5060a082015160058201805460ff191691151591909117905560c0820151805161075f9160068401916020909101906132e6565b5060e0820151805161077b9160078401916020909101906132e6565b5061010082015180516107989160088401916020909101906132e6565b5061012082015180516107b59160098401916020909101906132e6565b50506008546107c691506001613e8f565b60085550505050505050505050565b600a602052600090815260409020805481906107f090613eee565b80601f016020809104026020016040519081016040528092919081815260200182805461081c90613eee565b80156108695780601f1061083e57610100808354040283529160200191610869565b820191906000526020600020905b81548152906001019060200180831161084c57829003601f168201915b50505050509080600101805461087e90613eee565b80601f01602080910402602001604051908101604052809291908181526020018280546108aa90613eee565b80156108f75780601f106108cc576101008083540402835291602001916108f7565b820191906000526020600020905b8154815290600101906020018083116108da57829003601f168201915b50505050509080600201805461090c90613eee565b80601f016020809104026020016040519081016040528092919081815260200182805461093890613eee565b80156109855780601f1061095a57610100808354040283529160200191610985565b820191906000526020600020905b81548152906001019060200180831161096857829003601f168201915b50505050509080600301805461099a90613eee565b80601f01602080910402602001604051908101604052809291908181526020018280546109c690613eee565b8015610a135780601f106109e857610100808354040283529160200191610a13565b820191906000526020600020905b8154815290600101906020018083116109f657829003601f168201915b505050505090806004018054610a2890613eee565b80601f0160208091040260200160405190810160405280929190818152602001828054610a5490613eee565b8015610aa15780601f10610a7657610100808354040283529160200191610aa1565b820191906000526020600020905b815481529060010190602001808311610a8457829003601f168201915b5050506005840154600685018054949560ff909216949193509150610ac590613eee565b80601f0160208091040260200160405190810160405280929190818152602001828054610af190613eee565b8015610b3e5780601f10610b1357610100808354040283529160200191610b3e565b820191906000526020600020905b815481529060010190602001808311610b2157829003601f168201915b505050505090806007018054610b5390613eee565b80601f0160208091040260200160405190810160405280929190818152602001828054610b7f90613eee565b8015610bcc5780601f10610ba157610100808354040283529160200191610bcc565b820191906000526020600020905b815481529060010190602001808311610baf57829003601f168201915b505050505090806008018054610be190613eee565b80601f0160208091040260200160405190810160405280929190818152602001828054610c0d90613eee565b8015610c5a5780601f10610c2f57610100808354040283529160200191610c5a565b820191906000526020600020905b815481529060010190602001808311610c3d57829003601f168201915b505050505090806009018054610c6f90613eee565b80601f0160208091040260200160405190810160405280929190818152602001828054610c9b90613eee565b8015610ce85780601f10610cbd57610100808354040283529160200191610ce8565b820191906000526020600020905b815481529060010190602001808311610ccb57829003601f168201915b505050505090508a565b60608060608060006060806060806000600b8b604051610d1291906139f8565b90815260200160405180910390205490508060001415610d445760405162461bcd60e51b81526004016104d790613dfc565b60006009610d53600184613ea7565b81548110610d7157634e487b7160e01b600052603260045260246000fd5b90600052602060002090600a020160405180610140016040529081600082018054610d9b90613eee565b80601f0160208091040260200160405190810160405280929190818152602001828054610dc790613eee565b8015610e145780601f10610de957610100808354040283529160200191610e14565b820191906000526020600020905b815481529060010190602001808311610df757829003601f168201915b50505050508152602001600182018054610e2d90613eee565b80601f0160208091040260200160405190810160405280929190818152602001828054610e5990613eee565b8015610ea65780601f10610e7b57610100808354040283529160200191610ea6565b820191906000526020600020905b815481529060010190602001808311610e8957829003601f168201915b50505050508152602001600282018054610ebf90613eee565b80601f0160208091040260200160405190810160405280929190818152602001828054610eeb90613eee565b8015610f385780601f10610f0d57610100808354040283529160200191610f38565b820191906000526020600020905b815481529060010190602001808311610f1b57829003601f168201915b50505050508152602001600382018054610f5190613eee565b80601f0160208091040260200160405190810160405280929190818152602001828054610f7d90613eee565b8015610fca5780601f10610f9f57610100808354040283529160200191610fca565b820191906000526020600020905b815481529060010190602001808311610fad57829003601f168201915b50505050508152602001600482018054610fe390613eee565b80601f016020809104026020016040519081016040528092919081815260200182805461100f90613eee565b801561105c5780601f106110315761010080835404028352916020019161105c565b820191906000526020600020905b81548152906001019060200180831161103f57829003601f168201915b5050509183525050600582015460ff161515602082015260068201805460409092019161108890613eee565b80601f01602080910402602001604051908101604052809291908181526020018280546110b490613eee565b80156111015780601f106110d657610100808354040283529160200191611101565b820191906000526020600020905b8154815290600101906020018083116110e457829003601f168201915b5050505050815260200160078201805461111a90613eee565b80601f016020809104026020016040519081016040528092919081815260200182805461114690613eee565b80156111935780601f1061116857610100808354040283529160200191611193565b820191906000526020600020905b81548152906001019060200180831161117657829003601f168201915b505050505081526020016008820180546111ac90613eee565b80601f01602080910402602001604051908101604052809291908181526020018280546111d890613eee565b80156112255780601f106111fa57610100808354040283529160200191611225565b820191906000526020600020905b81548152906001019060200180831161120857829003601f168201915b5050505050815260200160098201805461123e90613eee565b80601f016020809104026020016040519081016040528092919081815260200182805461126a90613eee565b80156112b75780601f1061128c576101008083540402835291602001916112b7565b820191906000526020600020905b81548152906001019060200180831161129a57829003601f168201915b505050505081525050905080600001518160200151826040015183606001518460a001518560c001518660e0015187610100015188608001519a509a509a509a509a509a509a509a509a5050509193959799909294969850565b6000546001600160a01b0316331461133b5760405162461bcd60e51b81526004016104d790613d8a565b6001600160a01b03166000908152600160208190526040909120805460ff19169091179055565b3360009081526002602052604090205460609060ff166113945760405162461bcd60e51b81526004016104d790613e4b565b60095460009067ffffffffffffffff8111156113c057634e487b7160e01b600052604160045260246000fd5b6040519080825280602002602001820160405280156113f957816020015b6113e661336a565b8152602001906001900390816113de5790505b5090506000805b600954811015611a1b5784805190602001206009828154811061143357634e487b7160e01b600052603260045260246000fd5b90600052602060002090600a0201600201604051611451919061395d565b60405180910390201415611a09576009818154811061148057634e487b7160e01b600052603260045260246000fd5b90600052602060002090600a0201604051806101400160405290816000820180546114aa90613eee565b80601f01602080910402602001604051908101604052809291908181526020018280546114d690613eee565b80156115235780601f106114f857610100808354040283529160200191611523565b820191906000526020600020905b81548152906001019060200180831161150657829003601f168201915b5050505050815260200160018201805461153c90613eee565b80601f016020809104026020016040519081016040528092919081815260200182805461156890613eee565b80156115b55780601f1061158a576101008083540402835291602001916115b5565b820191906000526020600020905b81548152906001019060200180831161159857829003601f168201915b505050505081526020016002820180546115ce90613eee565b80601f01602080910402602001604051908101604052809291908181526020018280546115fa90613eee565b80156116475780601f1061161c57610100808354040283529160200191611647565b820191906000526020600020905b81548152906001019060200180831161162a57829003601f168201915b5050505050815260200160038201805461166090613eee565b80601f016020809104026020016040519081016040528092919081815260200182805461168c90613eee565b80156116d95780601f106116ae576101008083540402835291602001916116d9565b820191906000526020600020905b8154815290600101906020018083116116bc57829003601f168201915b505050505081526020016004820180546116f290613eee565b80601f016020809104026020016040519081016040528092919081815260200182805461171e90613eee565b801561176b5780601f106117405761010080835404028352916020019161176b565b820191906000526020600020905b81548152906001019060200180831161174e57829003601f168201915b5050509183525050600582015460ff161515602082015260068201805460409092019161179790613eee565b80601f01602080910402602001604051908101604052809291908181526020018280546117c390613eee565b80156118105780601f106117e557610100808354040283529160200191611810565b820191906000526020600020905b8154815290600101906020018083116117f357829003601f168201915b5050505050815260200160078201805461182990613eee565b80601f016020809104026020016040519081016040528092919081815260200182805461185590613eee565b80156118a25780601f10611877576101008083540402835291602001916118a2565b820191906000526020600020905b81548152906001019060200180831161188557829003601f168201915b505050505081526020016008820180546118bb90613eee565b80601f01602080910402602001604051908101604052809291908181526020018280546118e790613eee565b80156119345780601f1061190957610100808354040283529160200191611934565b820191906000526020600020905b81548152906001019060200180831161191757829003601f168201915b5050505050815260200160098201805461194d90613eee565b80601f016020809104026020016040519081016040528092919081815260200182805461197990613eee565b80156119c65780601f1061199b576101008083540402835291602001916119c6565b820191906000526020600020905b8154815290600101906020018083116119a957829003601f168201915b5050505050815250508383815181106119ef57634e487b7160e01b600052603260045260246000fd5b60200260200101819052508180611a0590613f29565b9250505b80611a1381613f29565b915050611400565b5060008167ffffffffffffffff811115611a4557634e487b7160e01b600052604160045260246000fd5b604051908082528060200260200182016040528015611a7e57816020015b611a6b61336a565b815260200190600190039081611a635790505b50905060005b82811015611af257838181518110611aac57634e487b7160e01b600052603260045260246000fd5b6020026020010151828281518110611ad457634e487b7160e01b600052603260045260246000fd5b60200260200101819052508080611aea90613f29565b915050611a84565b50925050505b919050565b60098181548110611b0d57600080fd5b90600052602060002090600a02016000915090508060000180546107f090613eee565b3360009081526001602052604090205460ff16611b5f5760405162461bcd60e51b81526004016104d790613d40565b60008111611b7f5760405162461bcd60e51b81526004016104d790613d09565b33600090815260036020526040902054811115611bae5760405162461bcd60e51b81526004016104d790613dcd565b3360009081526003602052604081208054839290611bcd908490613ea7565b90915550503060009081526003602052604081208054839290611bf1908490613e8f565b9091555050506001600160a01b03166000908152600260205260409020805460ff19166001179055565b3360009081526001602052604090205460609060ff16611c4d5760405162461bcd60e51b81526004016104d790613d40565b6000805b600954811015611cd057838051906020012060098281548110611c8457634e487b7160e01b600052603260045260246000fd5b90600052602060002090600a0201600901604051611ca2919061395d565b60405180910390201415611cbe5781611cba81613f29565b9250505b80611cc881613f29565b915050611c51565b5060008167ffffffffffffffff811115611cfa57634e487b7160e01b600052604160045260246000fd5b604051908082528060200260200182016040528015611d3357816020015b611d2061336a565b815260200190600190039081611d185790505b5090506000805b60095481101561235557858051906020012060098281548110611d6d57634e487b7160e01b600052603260045260246000fd5b90600052602060002090600a0201600901604051611d8b919061395d565b604051809103902014156123435760098181548110611dba57634e487b7160e01b600052603260045260246000fd5b90600052602060002090600a020160405180610140016040529081600082018054611de490613eee565b80601f0160208091040260200160405190810160405280929190818152602001828054611e1090613eee565b8015611e5d5780601f10611e3257610100808354040283529160200191611e5d565b820191906000526020600020905b815481529060010190602001808311611e4057829003601f168201915b50505050508152602001600182018054611e7690613eee565b80601f0160208091040260200160405190810160405280929190818152602001828054611ea290613eee565b8015611eef5780601f10611ec457610100808354040283529160200191611eef565b820191906000526020600020905b815481529060010190602001808311611ed257829003601f168201915b50505050508152602001600282018054611f0890613eee565b80601f0160208091040260200160405190810160405280929190818152602001828054611f3490613eee565b8015611f815780601f10611f5657610100808354040283529160200191611f81565b820191906000526020600020905b815481529060010190602001808311611f6457829003601f168201915b50505050508152602001600382018054611f9a90613eee565b80601f0160208091040260200160405190810160405280929190818152602001828054611fc690613eee565b80156120135780601f10611fe857610100808354040283529160200191612013565b820191906000526020600020905b815481529060010190602001808311611ff657829003601f168201915b5050505050815260200160048201805461202c90613eee565b80601f016020809104026020016040519081016040528092919081815260200182805461205890613eee565b80156120a55780601f1061207a576101008083540402835291602001916120a5565b820191906000526020600020905b81548152906001019060200180831161208857829003601f168201915b5050509183525050600582015460ff16151560208201526006820180546040909201916120d190613eee565b80601f01602080910402602001604051908101604052809291908181526020018280546120fd90613eee565b801561214a5780601f1061211f5761010080835404028352916020019161214a565b820191906000526020600020905b81548152906001019060200180831161212d57829003601f168201915b5050505050815260200160078201805461216390613eee565b80601f016020809104026020016040519081016040528092919081815260200182805461218f90613eee565b80156121dc5780601f106121b1576101008083540402835291602001916121dc565b820191906000526020600020905b8154815290600101906020018083116121bf57829003601f168201915b505050505081526020016008820180546121f590613eee565b80601f016020809104026020016040519081016040528092919081815260200182805461222190613eee565b801561226e5780601f106122435761010080835404028352916020019161226e565b820191906000526020600020905b81548152906001019060200180831161225157829003601f168201915b5050505050815260200160098201805461228790613eee565b80601f01602080910402602001604051908101604052809291908181526020018280546122b390613eee565b80156123005780601f106122d557610100808354040283529160200191612300565b820191906000526020600020905b8154815290600101906020018083116122e357829003601f168201915b50505050508152505083838151811061232957634e487b7160e01b600052603260045260246000fd5b6020026020010181905250818061233f90613f29565b9250505b8061234d81613f29565b915050611d3a565b5090949350505050565b6000546001600160a01b031633146123895760405162461bcd60e51b81526004016104d790613d8a565b6001600160a01b038116600090815260036020526040812080548492906123b1908490613e8f565b90915550506040518281526001600160a01b038216903390600080516020613f71833981519152906020016105ab565b600680546105c490613eee565b3360009081526001602052604090205460ff1661241d5760405162461bcd60e51b81526004016104d790613d40565b600b8460405161242d91906139f8565b9081526020016040518091039020546000146124a35760405162461bcd60e51b815260206004820152602f60248201527f50726f64756374207769746820746869732073657269616c206e756d6265722060448201526e30b63932b0b23c9032bc34b9ba399760891b60648201526084016104d7565b600082116124c35760405162461bcd60e51b81526004016104d790613d09565b336000908152600360205260409020548211156124f25760405162461bcd60e51b81526004016104d790613dcd565b3360009081526003602052604081208054849290612511908490613ea7565b90915550503060009081526003602052604081208054849290612535908490613e8f565b9091555050604080516101408101825288815260208082018990528183018890526060820187905260808201869052600060a083018190528351808301855281815260c08401528351808301855281815260e084015283518085019094526001808552600360fc1b85840152610100840194909452610120830185905260098054948501815590528151805192938493600a9091027f6e1540171b6c0c960b71a7020d9f60077f6af931a8bbf590da0223dacf75c7af01926125fb9284929101906132e6565b50602082810151805161261492600185019201906132e6565b50604082015180516126309160028401916020909101906132e6565b506060820151805161264c9160038401916020909101906132e6565b50608082015180516126689160048401916020909101906132e6565b5060a082015160058201805460ff191691151591909117905560c0820151805161269c9160068401916020909101906132e6565b5060e082015180516126b89160078401916020909101906132e6565b5061010082015180516126d59160088401916020909101906132e6565b5061012082015180516126f29160098401916020909101906132e6565b505050600980549050600b8660405161270b91906139f8565b908152604051602091819003820181209290925584825230913391600080516020613f71833981519152910160405180910390a35050505050505050565b60006001600160a01b0383166127a15760405162461bcd60e51b815260206004820152601a60248201527f496e76616c696420726563697069656e7420616464726573732e00000000000060448201526064016104d7565b600082116127c15760405162461bcd60e51b81526004016104d790613d09565b336000908152600360205260409020548211156127f05760405162461bcd60e51b81526004016104d790613dcd565b3360009081526001602052604090205460ff168061281857506000546001600160a01b031633145b61287c5760405162461bcd60e51b815260206004820152602f60248201527f4f6e6c79206d616e756661637475726572206f72206f776e65722063616e207460448201526e3930b739b332b9103a37b5b2b7399760891b60648201526084016104d7565b60005482906001600160a01b038581169116148015906128b557506001600160a01b03841660009081526001602052604090205460ff16155b80156128da57506001600160a01b03841660009081526002602052604090205460ff16155b1561294e576128e98184613ea7565b600080546001600160a01b031681526003602052604081208054909190612911908490613e8f565b90915550506000546001600160a01b031633600080516020613f7183398151915261293c8487613ea7565b60405190815260200160405180910390a35b336000908152600360205260408120805483929061296d908490613ea7565b90915550506001600160a01b0384166000908152600360205260408120805483929061299a908490613e8f565b90915550506040518181526001600160a01b038516903390600080516020613f718339815191529060200160405180910390a35060019392505050565b3360009081526002602052604090205460ff16612a065760405162461bcd60e51b81526004016104d790613e4b565b60008111612a265760405162461bcd60e51b81526004016104d790613d09565b33600090815260036020526040902054811115612a555760405162461bcd60e51b81526004016104d790613dcd565b3360009081526003602052604081208054839290612a74908490613ea7565b90915550503060009081526003602052604081208054839290612a98908490613e8f565b925050819055506000600b87604051612ab191906139f8565b90815260200160405180910390205490508060001415612ae35760405162461bcd60e51b81526004016104d790613dfc565b60006009612af2600184613ea7565b81548110612b1057634e487b7160e01b600052603260045260246000fd5b60009182526020909120600a90910201600581015490915060ff1615612b785760405162461bcd60e51b815260206004820152601860248201527f50726f6475637420697320616c726561647920736f6c642e000000000000000060448201526064016104d7565b60058101805460ff191660011790558651612b9c90600683019060208a01906132e6565b508551612bb290600783019060208901906132e6565b508451612bc890600883019060208801906132e6565b508351612bde90600483019060208701906132e6565b5086600c89604051612bf091906139f8565b90815260200160405180910390209080519060200190612c119291906132e6565b505050505050505050565b60606009805480602002602001604051908101604052809291908181526020016000905b828210156131a857838290600052602060002090600a020160405180610140016040529081600082018054612c7490613eee565b80601f0160208091040260200160405190810160405280929190818152602001828054612ca090613eee565b8015612ced5780601f10612cc257610100808354040283529160200191612ced565b820191906000526020600020905b815481529060010190602001808311612cd057829003601f168201915b50505050508152602001600182018054612d0690613eee565b80601f0160208091040260200160405190810160405280929190818152602001828054612d3290613eee565b8015612d7f5780601f10612d5457610100808354040283529160200191612d7f565b820191906000526020600020905b815481529060010190602001808311612d6257829003601f168201915b50505050508152602001600282018054612d9890613eee565b80601f0160208091040260200160405190810160405280929190818152602001828054612dc490613eee565b8015612e115780601f10612de657610100808354040283529160200191612e11565b820191906000526020600020905b815481529060010190602001808311612df457829003601f168201915b50505050508152602001600382018054612e2a90613eee565b80601f0160208091040260200160405190810160405280929190818152602001828054612e5690613eee565b8015612ea35780601f10612e7857610100808354040283529160200191612ea3565b820191906000526020600020905b815481529060010190602001808311612e8657829003601f168201915b50505050508152602001600482018054612ebc90613eee565b80601f0160208091040260200160405190810160405280929190818152602001828054612ee890613eee565b8015612f355780601f10612f0a57610100808354040283529160200191612f35565b820191906000526020600020905b815481529060010190602001808311612f1857829003601f168201915b5050509183525050600582015460ff1615156020820152600682018054604090920191612f6190613eee565b80601f0160208091040260200160405190810160405280929190818152602001828054612f8d90613eee565b8015612fda5780601f10612faf57610100808354040283529160200191612fda565b820191906000526020600020905b815481529060010190602001808311612fbd57829003601f168201915b50505050508152602001600782018054612ff390613eee565b80601f016020809104026020016040519081016040528092919081815260200182805461301f90613eee565b801561306c5780601f106130415761010080835404028352916020019161306c565b820191906000526020600020905b81548152906001019060200180831161304f57829003601f168201915b5050505050815260200160088201805461308590613eee565b80601f01602080910402602001604051908101604052809291908181526020018280546130b190613eee565b80156130fe5780601f106130d3576101008083540402835291602001916130fe565b820191906000526020600020905b8154815290600101906020018083116130e157829003601f168201915b5050505050815260200160098201805461311790613eee565b80601f016020809104026020016040519081016040528092919081815260200182805461314390613eee565b80156131905780601f1061316557610100808354040283529160200191613190565b820191906000526020600020905b81548152906001019060200180831161317357829003601f168201915b50505050508152505081526020019060010190612c40565b50505050905090565b8051602081830181018051600c82529282019190930120915280546105c490613eee565b6000600b846040516131e791906139f8565b908152602001604051809103902054905080600014156132195760405162461bcd60e51b81526004016104d790613dfc565b60006009613228600184613ea7565b8154811061324657634e487b7160e01b600052603260045260246000fd5b600091825260209091206005600a909202019081015490915060ff1615156001146132b35760405162461bcd60e51b815260206004820152601860248201527f50726f64756374206973206e6f742079657420736f6c642e000000000000000060448201526064016104d7565b83516132c890600683019060208701906132e6565b5082516132de90600783019060208601906132e6565b505050505050565b8280546132f290613eee565b90600052602060002090601f016020900481019282613314576000855561335a565b82601f1061332d57805160ff191683800117855561335a565b8280016001018555821561335a579182015b8281111561335a57825182559160200191906001019061333f565b506133669291506133bf565b5090565b6040518061014001604052806060815260200160608152602001606081526020016060815260200160608152602001600015158152602001606081526020016060815260200160608152602001606081525090565b5b8082111561336657600081556001016133c0565b80356001600160a01b0381168114611af857600080fd5b80358015158114611af857600080fd5b600082601f83011261340b578081fd5b813567ffffffffffffffff8082111561342657613426613f5a565b604051601f8301601f19908116603f0116810190828211818310171561344e5761344e613f5a565b81604052838152866020858801011115613466578485fd5b8360208701602083013792830160200193909352509392505050565b600060208284031215613493578081fd5b61349c826133d4565b9392505050565b600080604083850312156134b5578081fd5b6134be836133d4565b91506134cc602084016133d4565b90509250929050565b600080604083850312156134e7578182fd5b6134f0836133d4565b946020939093013593505050565b60006020828403121561350f578081fd5b813567ffffffffffffffff811115613525578182fd5b613531848285016133fb565b949350505050565b60008060006060848603121561354d578081fd5b833567ffffffffffffffff80821115613564578283fd5b613570878388016133fb565b94506020860135915080821115613585578283fd5b613591878388016133fb565b935060408601359150808211156135a6578283fd5b506135b3868287016133fb565b9150509250925092565b6000806000806000806000806000806101408b8d0312156135dc578586fd5b8a3567ffffffffffffffff808211156135f3578788fd5b6135ff8e838f016133fb565b9b5060208d0135915080821115613614578788fd5b6136208e838f016133fb565b9a5060408d0135915080821115613635578788fd5b6136418e838f016133fb565b995060608d0135915080821115613656578788fd5b6136628e838f016133fb565b985060808d0135915080821115613677578788fd5b6136838e838f016133fb565b975061369160a08e016133eb565b965060c08d01359150808211156136a6578586fd5b6136b28e838f016133fb565b955060e08d01359150808211156136c7578485fd5b6136d38e838f016133fb565b94506101008d01359150808211156136e9578384fd5b6136f58e838f016133fb565b93506101208d013591508082111561370b578283fd5b506137188d828e016133fb565b9150509295989b9194979a5092959850565b60008060008060008060c08789031215613742578182fd5b863567ffffffffffffffff80821115613759578384fd5b6137658a838b016133fb565b9750602089013591508082111561377a578384fd5b6137868a838b016133fb565b9650604089013591508082111561379b578384fd5b6137a78a838b016133fb565b955060608901359150808211156137bc578384fd5b6137c88a838b016133fb565b945060808901359150808211156137dd578384fd5b506137ea89828a016133fb565b92505060a087013590509295509295509295565b600080600080600080600060e0888a031215613818578283fd5b873567ffffffffffffffff8082111561382f578485fd5b61383b8b838c016133fb565b985060208a0135915080821115613850578485fd5b61385c8b838c016133fb565b975060408a0135915080821115613871578485fd5b61387d8b838c016133fb565b965060608a0135915080821115613892578485fd5b61389e8b838c016133fb565b955060808a01359150808211156138b3578485fd5b6138bf8b838c016133fb565b945060a08a0135935060c08a01359150808211156138db578283fd5b506138e88a828b016133fb565b91505092959891949750929550565b600060208284031215613908578081fd5b5035919050565b60008060408385031215613921578182fd5b823591506134cc602084016133d4565b60008151808452613949816020860160208601613ebe565b601f01601f19169290920160200192915050565b600080835482600182811c91508083168061397957607f831692505b602080841082141561399957634e487b7160e01b87526022600452602487fd5b8180156139ad57600181146139be576139ea565b60ff198616895284890196506139ea565b60008a815260209020885b868110156139e25781548b8201529085019083016139c9565b505084890196505b509498975050505050505050565b60008251613a0a818460208701613ebe565b9190910192915050565b60006020808301818452808551808352604092508286019150828160051b870101848801865b83811015613b6057603f1989840301855281516101408151818652613a6182870182613931565b915050888201518582038a870152613a798282613931565b9150508782015185820389870152613a918282613931565b91505060608083015186830382880152613aab8382613931565b9250505060808083015186830382880152613ac68382613931565b9250505060a080830151613add8288018215159052565b505060c08083015186830382880152613af68382613931565b9250505060e08083015186830382880152613b118382613931565b925050506101008083015186830382880152613b2d8382613931565b925050506101208083015192508582038187015250613b4c8183613931565b968901969450505090860190600101613a3a565b509098975050505050505050565b60208152600061349c6020830184613931565b6000610120808352613b958184018d613931565b90508281036020840152613ba9818c613931565b90508281036040840152613bbd818b613931565b90508281036060840152613bd1818a613931565b9050871515608084015282810360a0840152613bed8188613931565b905082810360c0840152613c018187613931565b905082810360e0840152613c158186613931565b9050828103610100840152613c2a8185613931565b9c9b505050505050505050505050565b6000610140808352613c4e8184018e613931565b90508281036020840152613c62818d613931565b90508281036040840152613c76818c613931565b90508281036060840152613c8a818b613931565b90508281036080840152613c9e818a613931565b88151560a0850152905082810360c0840152613cba8188613931565b905082810360e0840152613cce8187613931565b9050828103610100840152613ce38186613931565b9050828103610120840152613cf88185613931565b9d9c50505050505050505050505050565b6020808252601e908201527f416d6f756e74206d7573742062652067726561746572207468616e20302e0000604082015260600190565b6020808252602a908201527f4f6e6c79206d616e7566616374757265722063616e20706572666f726d20746860408201526934b99030b1ba34b7b71760b11b606082015260800190565b60208082526023908201527f4f6e6c79206f776e65722063616e20706572666f726d2074686973206163746960408201526237b71760e91b606082015260800190565b60208082526015908201527424b739bab33334b1b4b2b73a103130b630b731b29760591b604082015260600190565b6020808252602f908201527f50726f64756374207769746820746869732073657269616c206e756d6265722060408201526e3237b2b9903737ba1032bc34b9ba1760891b606082015260800190565b60208082526024908201527f4f6e6c79206465616c65722063616e20706572666f726d20746869732061637460408201526334b7b71760e11b606082015260800190565b60008219821115613ea257613ea2613f44565b500190565b600082821015613eb957613eb9613f44565b500390565b60005b83811015613ed9578181015183820152602001613ec1565b83811115613ee8576000848401525b50505050565b600181811c90821680613f0257607f821691505b60208210811415613f2357634e487b7160e01b600052602260045260246000fd5b50919050565b6000600019821415613f3d57613f3d613f44565b5060010190565b634e487b7160e01b600052601160045260246000fd5b634e487b7160e01b600052604160045260246000fdfeddf252ad1be2c89b69c2b068fc378daa952ba7f163c4a11628f55a4df523b3efa2646970667358221220de7e935ccbfdd5ebf0be9d3ffacdc245331a53640147679baef72594ffd5545264736f6c63430008040033",
  "linkReferences": {},
  "deployedLinkReferences": {}
}